:020000040800F2
:1000000000500020A91E0008011D0008091D00085D
:10001000111D0008191D0008211D00080000000026
:10002000000000000000000000000000291D000882
:10003000351D000800000000411D00084D1D00088E
:10004000F11E0008F11E0008F11E0008F11E000854
:10005000F11E0008F11E0008F11E0008F11E000844
:10006000F11E0008F11E0008F11E0008F11E000834
:10007000F11E0008591D0008F11E0008F11E0008BD
:10008000F11E0008F11E0008F11E0008F11E000814
:10009000F11E0008F11E0008F11E0008F11E000804
:1000A000F11E0008F11E0008F11E0008F11E0008F4
:1000B000F11E0008F11E0008F11E00086D1D000869
:1000C000F11E0008F11E0008F11E0008F11E0008D4
:1000D000F11E0008F11E0008811D0008951D000892
:1000E000F11E0008F11E0008F11E000800000000CB
:1000F0000000000000000000000000000000000000
:0C01000000000000000000005FF808F1A3
:10010C0010B5054C237833B9044B13B10448AFF345
:10011C0000800123237010BD6C0000200000000043
:10012C00D078000808B5034B1BB103490348AFF363
:10013C00008008BD0000000070000020D07800088E
:10014C0080F0004002E000BF81F0004142001FBF80
:10015C005FEA410392EA030F7FEA226C7FEA236C89
:10016C006AD04FEA1262D2EB1363C1BFD21841407E
:10017C0048404140B8BF5B42192B88BF704710F014
:10018C00004F40F4000020F07F4018BF404211F0B7
:10019C00004F41F4000121F07F4118BF494292EA1F
:1001AC00030F3FD0A2F1010241FA03FC10EB0C004B
:1001BC00C3F1200301FA03F100F0004302D54942D8
:1001CC0060EB4000B0F5000F13D3B0F1807F06D385
:1001DC0040084FEA310102F10102FE2A51D2B1F17D
:1001EC00004F40EBC25008BF20F0010040EA030072
:1001FC007047490040EB0000013A28BFB0F5000FF2
:10020C00EDD2B0FA80FCACF1080CB2EB0C0200FAA7
:10021C000CF0AABF00EBC25052421843BCBFD040F6
:10022C001843704792F0000F81F4000106BF80F470
:10023C0000000132013BB5E74FEA41037FEA226C33
:10024C0018BF7FEA236C21D092EA030F04D092F0FE
:10025C00000F08BF0846704790EA010F1CBF002032
:10026C00704712F07F4F04D1400028BF40F000408F
:10027C00704712F100723CBF00F50000704700F0AF
:10028C00004343F0FE4040F4000070477FEA2262D6
:10029C0016BF08467FEA23630146420206BF5FEAA7
:1002AC00412390EA010F40F4800070474FF00003A7
:1002BC0004E000BF10F0004348BF40425FEA000C6E
:1002CC0008BF704743F0964301464FF000001CE016
:1002DC0050EA010208BF70474FF000030AE000BF6C
:1002EC0050EA010208BF704711F0004302D54042AA
:1002FC0061EB41015FEA010C02BF8446014600201C
:10030C0043F0B64308BFA3F18053A3F50003BCFA36
:10031C008CF2083AA3EBC25310DB01FA02FC6344E3
:10032C0000FA02FCC2F12002BCF1004F20FA02F2EA
:10033C0043EB020008BF20F00100704702F12002DD
:10034C0001FA02FCC2F1200250EA4C0021FA02F23E
:10035C0043EB020008BF20EADC7070474FF0FF0C43
:10036C001CEAD0521EBF1CEAD15392EA0C0F93EA3E
:10037C000C0F6FD01A4480EA010C400218BF5FEAE0
:10038C0041211ED04FF0006343EA501043EA511153
:10039C00A0FB01310CF00040B1F5000F3EBF49004D
:1003AC0041EAD3715B0040EA010062F17F02FD2A51
:1003BC001DD8B3F1004F40EBC25008BF20F0010034
:1003CC00704790F0000F0CF0004C08BF49024CEA4B
:1003DC00502040EA51207F3AC2BFD2F1FF0340EADD
:1003EC00C250704740F400004FF00003013A5DDC4E
:1003FC0012F1190FDCBF00F000407047C2F100028F
:10040C00410021FA02F1C2F1200200FA02FC5FEA7B
:10041C00310040F1000053EA4C0308BF20EADC70C5
:10042C00704792F0000F00F0004C02BF400010F437
:10043C00000F013AF9D040EA0C0093F0000F01F0E4
:10044C00004C02BF490011F4000F013BF9D041EA06
:10045C000C018FE70CEAD15392EA0C0F18BF93EA08
:10046C000C0F0AD030F0004C18BF31F0004CD8D132
:10047C0080EA010000F00040704790F0000F17BFB9
:10048C0090F0004F084691F0000F91F0004F14D0FF
:10049C0092EA0C0F01D142020FD193EA0C0F03D157
:1004AC004B0218BF084608D180EA010000F000405A
:1004BC0040F0FE4040F40000704740F0FE4040F435
:1004CC00400070474FF0FF0C1CEAD0521EBF1CEAD4
:1004DC00D15392EA0C0F93EA0C0F69D0A2EB0302F2
:1004EC0080EA010C49024FEA402037D04FF080538C
:1004FC0043EA111143EA10130CF000408B4238BF51
:10050C005B0042F17D024FF4000C8B4224BF5B1A5E
:10051C0040EA0C00B3EB510F24BFA3EB510340EAAC
:10052C005C00B3EB910F24BFA3EB910340EA9C005A
:10053C00B3EBD10F24BFA3EBD10340EADC001B01CA
:10054C0018BF5FEA1C1CE0D1FD2A3FF650AF8B426E
:10055C0040EBC25008BF20F0010070470CF0004C7B
:10056C004CEA50207F32C2BFD2F1FF0340EAC250A6
:10057C00704740F400004FF00003013A37E792F067
:10058C00000F00F0004C02BF400010F4000F013AC5
:10059C00F9D040EA0C0093F0000F01F0004C02BFC0
:1005AC00490011F4000F013BF9D041EA0C0195E729
:1005BC000CEAD15392EA0C0F08D142027FF47DAFC2
:1005CC0093EA0C0F7FF470AF084676E793EA0C0FB2
:1005DC0004D14B023FF44CAF08466EE730F0004CB0
:1005EC0018BF31F0004CCAD130F000427FF45CAF40
:1005FC0031F000437FF43CAF5FE700BF4FF0FF3CAE
:10060C0006E000BF4FF0010C02E000BF4FF0010C00
:10061C004DF804CD4FEA40024FEA41037FEA226CC9
:10062C0018BF7FEA236C11D001B052EA530C18BFEB
:10063C0090EA010F58BFB2EB030088BFC81738BF50
:10064C006FEAE17018BF40F0010070477FEA226C3E
:10065C0002D15FEA402C05D17FEA236CE4D15FEA3A
:10066C00412CE1D05DF8040B704700BF844608466E
:10067C006146FFE70FB5FFF7C9FF002848BF10F12F
:10068C00000F0FBD4DF808EDFFF7F4FF0CBF012074
:10069C0000205DF808FB00BF4DF808EDFFF7EAFFFE
:1006AC0034BF012000205DF808FB00BF4DF808EDB9
:1006BC00FFF7E0FF94BF012000205DF808FB00BFAE
:1006CC004DF808EDFFF7D2FF94BF012000205DF834
:1006DC0008FB00BF4DF808EDFFF7C8FF34BF012041
:1006EC0000205DF808FB00BF4FEA4002B2F1FE4F5C
:1006FC000FD34FF09E03B3EB12620DD94FEA0023D8
:10070C0043F0004310F0004F23FA02F018BF4042B0
:10071C0070474FF00000704712F1610F01D1420297
:10072C0005D110F0004008BF6FF0004070474FF04B
:10073C000000704742000ED2B2F1FE4F0BD34FF0C7
:10074C009E03B3EB126209D44FEA002343F000433B
:10075C0023FA02F070474FF00000704712F1610F5E
:10076C0001D1420202D14FF0FF3070474FF0000030
:10077C00704700BF90B583B000AF4FF4FA732822D6
:10078C0000214B4800F042FB03461C464FF4FA7321
:10079C0040F267124FF4A071454800F037FB034656
:1007AC002344FB80FB88012B09D801F0F5FB0246A2
:1007BC00404B1B689A4202D900F034FF74E001F000
:1007CC00EBFB02463B4B1B689A4205D93A4B37224E
:1007DC001A703A4B37221A704FF496732822002164
:1007EC00334800F013FB03461C464FF4967340F25B
:1007FC0067124FF4A0712E4800F008FB0346234407
:10080C00BB804FF4967340F23F124FF4827128482C
:10081C0000F0FCFA03467B804FF496736422292186
:10082C00234800F0F3FA03463B80BB88012B0FD81A
:10083C0001F0B2FB02461F4B1B689A4208D900F02C
:10084C00F1FE00224FF400511D4802F0EFF82BE0AE
:10085C0001224FF400511A4802F0E8F801F09CFB19
:10086C000246144B1B689A4205D901F095FB0346CE
:10087C009633104A13607A883B889A4205D90E4BFE
:10088C0078221A7000F03EFF0EE07A883B889A427C
:10089C0005D20A4B78221A7000F00CFF04E0064BCC
:1008AC0078221A7000F02EFF0C37BD4690BD00BFA9
:1008BC00980000208800002000000020010000208B
:1008CC000010014080B500AF7E4B1B78303B412BB4
:1008DC0000F2F68001A252F823F000BF2D0A0008A6
:1008EC003B0A0008490A0008570A0008650A000874
:1008FC00730A0008810A00088F0A00089D0A000884
:10090C00AB0A0008CD0A0008CD0A0008CD0A000881
:10091C00CD0A0008CD0A0008CD0A0008CD0A00084F
:10092C00CD0A0008FD090008CD0A0008CD0A000810
:10093C00C70A0008F7090008150A0008210A000870
:10094C001B0A0008270A0008CD0A0008090A00083B
:10095C00CD0A0008CD0A0008CD0A0008CD0A00080F
:10096C00CD0A00080F0A0008030A0008F109000864
:10097C00CD0A0008CD0A0008CD0A0008CD0A0008EF
:10098C00CD0A0008CD0A0008CD0A0008CD0A0008DF
:10099C00CD0A0008CD0A0008CD0A0008CD0A0008CF
:1009AC00CD0A0008CD0A0008CD0A0008CD0A0008BF
:1009BC00CD0A0008CD0A0008CD0A0008CD0A0008AF
:1009CC00CD0A0008CD0A0008CD0A0008CD0A00089F
:1009DC00CD0A0008CD0A0008CD0A0008CD0A00088F
:1009EC00B90A0008FFF7C6FE6AE000F01BFE67E0DC
:1009FC0000F010FF64E000F09BFF61E000F05AFE95
:100A0C005EE000F07FFE5BE000F0D4FE58E000F00A
:100A1C00A1FE55E000F02CFF52E000F059FF4FE032
:100A2C00294B64221A70294B64221A7048E0264B19
:100A3C008C221A70254B8C221A7041E0224B992281
:100A4C001A70224B99221A703AE01F4BA5221A7089
:100A5C001E4BA5221A7033E01B4BB2221A701B4B93
:100A6C00B2221A702CE0184BBF221A70174BBF22FF
:100A7C001A7025E0144BCC221A70144BCC221A702D
:100A8C001EE0114BD8221A70104BD8221A7017E0A6
:100A9C000D4BE5221A700D4BE5221A7010E00A4B33
:100AAC00F2221A70094BF2221A7009E0064BFA2254
:100ABC001A70064BFA221A7002E000F0D9F900BF46
:100ACC0000BF80BD8C000020000000200100002031
:100ADC0080B485B000AF78600B467B800023FB812F
:100AEC0007E07B685A1C7A601B781A46FB89134412
:100AFC00FB817B885A1E7A80002BF2D1FB89184629
:100B0C001437BD4680BC704780B58CB000AF7860A0
:100B1C000B467B80824B00221A707B681B78AA2BB9
:100B2C0040F0F4807B6801331B781BB21B021AB2B5
:100B3C007B6802331B781BB213431BB27B847B8C08
:100B4C005A1C7B889A4280F2E3807B8C7A6813442F
:100B5C001B781BB21B021AB27B8C013379680B44D5
:100B6C001B781BB213431BB23B847B8C19467868F1
:100B7C00FFF7AEFF03461A463B8C934240F0CA8007
:100B8C007B6805331B78AD2B40F0C6807B680B333C
:100B9C001B781B027A680C32127813431846FFF745
:100BAC0089FB03465F491846FFF7D8FB0346FB61F8
:100BBC007B6806331B781BB21B021AB27B680733A7
:100BCC001B781BB213431BB27B837B8B053B564AB2
:100BDC0082FB0312DB17D31A7B76544B7B617B7E33
:100BEC001846FFF767FB034619467869FFF76AFC5E
:100BFC0003463B61002387F82F307DE097F82F30B8
:100C0C001846FFF757FB034639691846FFF7A6FB52
:100C1C000346F9691846FFF799FA03464449184602
:100C2C00FFF794FA0346BB6205E04249B86AFFF746
:100C3C008BFA0346BB623F49B86AFFF741FD034696
:100C4C00002BF2D105E03B49B86AFFF77FFA034667
:100C5C00BB624FF00001B86AFFF71EFD0346002B84
:100C6C00F1D14FF07C51B86AFFF770FA0346184681
:100C7C00FFF73AFD03467B627B6AB3F5B47F01DB79
:100C8C0000237B6297F82F2013465B0013440E332E
:100C9C001A467B6813441B781BB21B0219B297F8D7
:100CAC002F2013465B0013440F331A467B68134402
:100CBC001B781BB20B431BB2FB81FB891846FFF759
:100CCC00F9FA03464FF07A511846FFF747FB0346F3
:100CDC004FF07C511846FFF739FA03461846FFF7D8
:100CEC0029FD034699B2144A7B6A22F8131097F82F
:100CFC002F30013387F82F3097F82F207B7E9A42C4
:100D0C00FFF47CAF064B01221A7006E000BF04E032
:100D1C0000BF02E000BF00E000BF3037BD4680BD21
:100D2C00680300200AD7233C565555550000C04196
:100D3C00000070410000B4439800002080B582B0E0
:100D4C0000AF2B4B1B78002B4DD02A4B1B78002B64
:100D5C0049D100237B6000237B8030E07B88B3F596
:100D6C00B37F12D87B68244A98187B68C3F5096155
:100D7C0008317B88214A32F81330214A05F06AFF8A
:100D8C0002467B6813447B6011E07B681A4A981812
:100D9C007B68C3F5096108317B88184A32F8133037
:100DAC00184A05F057FF02467B6813447B607B684A
:100DBC0040F68702934207DC7B8801337B807B887B
:100DCC00B3F5B47FCAD300E000BF0A4B01221A70FE
:100DDC00074B00221A707B689BB21A4606490A48D8
:100DEC0004F049FE00E000BF0837BD4680BD00BFDF
:100DFC00680300209400002070030020980000205D
:100E0C00FC78000800790008EC0C002080B487B056
:100E1C0000AFF860084611461A4603467B810B4624
:100E2C003B811346FB800023FB827B89BB8214E051
:100E3C00BB8A5B00FA6813441B88002B0AD0BB8A60
:100E4C005B00FA6813441B88FA889A4202D9FB8A21
:100E5C000133FB82BB8A0133BB82BA8A3B899A423B
:100E6C00E6D9FB8A18461C37BD4680BC704700008B
:100E7C0080B500AF01F090F80246124B1B68D31AF4
:100E8C00B3F57A7F1CD3104B1B78002B07D10F4B7B
:100E9C001B6864225A630C4B01221A700AE00A4B3D
:100EAC001B78002B06D0094B1B6800225A63064B9B
:100EBC0000221A7001F070F80346024A136000E039
:100ECC0000BF80BD6C03002069030020A40C00202F
:100EDC0080B483B000AF78604FF06043D3F8803EAD
:100EEC0003F00103002B13D04FF06043D3F8003E06
:100EFC0003F00103002B0BD000E000BF4FF0604368
:100F0C001B68002BF9D04FF060437A68D2B21A708C
:100F1C007B6818460C37BD4680BC704780B586B0E0
:100F2C0000AFF860B9607A6000237B6100237B61BD
:100F3C0009E0BB685A1CBA601B781846FFF7C8FF5B
:100F4C007B6901337B617A697B689A42F1DB7B6850
:100F5C0018461837BD4680BD80B500AF00F0C4FF01
:100F6C0000F05EF800F046FA00F026FA00F0CCF83B
:100F7C0000F0CEF900F074F900F098F800F0F2F9F6
:100F8C0000211D4803F09CFF04211B4803F098FF2F
:100F9C0000211A4803F094FF184B1B6800225A6377
:100FAC00C8221749174804F0C0FD012216491748FA
:100FBC0004F096FD114803F0E1FE154B1B68986890
:100FCC0000230222002105F091FD0C4B1B686422CA
:100FDC005A63104B1B78002B08D00F4B1B881946FB
:100FEC000E48FFF791FD0B4B00221A70FFF7A6FE7F
:100FFC00FFF768FCEDE700BF5C0C0020A40C0020A0
:10100C00C00E0020340D00208C000020EC0C0020C1
:10101C001C000020880F00208A0F0020C00D00202B
:10102C0080B590B000AF07F11803282200211846B4
:10103C0005F089FE3B1D00221A605A609A60DA6046
:10104C001A610123BB614FF48033FB6100233B62C7
:10105C000123BB6202237B634FF48033BB634FF4E9
:10106C00E013FB6307F11803184603F027FA034655
:10107C00002B01D000F0ACFA0F237B600223BB6085
:10108C000023FB604FF480633B6100237B613B1DBD
:10109C000221184603F094FC0346002B01D000F00B
:1010AC0097FA00BF4037BD4680BD000080B500AF49
:1010BC00124B134A1A60114B124A5A600F4B002202
:1010CC009A600E4B0022DA600C4B4FF480421A618E
:1010DC000A4B00225A61094B00229A61074B0022ED
:1010EC00DA61064B00221A62044801F0B7FC034691
:1010FC00002B01D000F06CFA00BF80BD080C002062
:10110C0000540040A086010080B596B000AF07F1F6
:10111C00480300221A605A609A60DA6007F14003B3
:10112C0000221A605A6007F1240300221A605A60E8
:10113C009A60DA601A615A619A613B1D2022002183
:10114C00184605F000FE444B444A1A60424B40F6E8
:10115C003F325A60404B00229A603F4BFA22DA60D1
:10116C003D4B00221A613C4B00225A613A4B002243
:10117C009A61394803F0B2FD0346002B01D000F010
:10118C0027FA4FF48053BB6407F1480319463248E1
:10119C0003F0FAFF0346002B01D000F019FA2E4899
:1011AC0003F03EFE0346002B01D000F011FA0023A1
:1011BC003B6400237B6407F140031946264804F086
:1011CC005BFB0346002B01D000F002FA60237B622C
:1011DC000023BB620023FB6200233B6300237B6381
:1011EC000023BB630023FB6307F124030022194691
:1011FC00194803F007FF0346002B01D000F0E8F973
:10120C0007F1240304221946134803F0FBFE03469E
:10121C00002B01D000F0DCF900237B600023BB60C5
:10122C000023FB6000233B6100237B614FF40053E0
:10123C00BB6100233B623B1D1946074804F07AFB57
:10124C000346002B01D000F0C3F9034800F040FC2A
:10125C0000BF5837BD4680BD5C0C0020002C0140FF
:10126C0080B58AB000AF07F1200300221A605A60E3
:10127C003B1D00221A605A609A60DA601A615A614A
:10128C009A61224B4FF080421A60204B40F63F325D
:10129C005A601E4B00229A601C4BFA22DA601B4BE0
:1012AC0000221A61194B00229A61184803F0B8FD0C
:1012BC000346002B01D000F08BF900233B62002386
:1012CC007B6207F120031946104804F0D5FA034657
:1012DC00002B01D000F07CF960237B600023BB6005
:1012EC000023FB6000237B613B1D0022194607484D
:1012FC0003F088FE0346002B01D000F069F9034887
:10130C0000F0E6FB00BF2837BD4680BDA40C0020D2
:10131C0080B500AF114B124A1A60104B4FF4E132FA
:10132C005A600E4B00229A600C4B0022DA600B4B79
:10133C0000221A61094B0C225A61084B00229A6157
:10134C00064B0022DA61054804F045FB0346002BEE
:10135C0001D000F03DF900BF80BD00BFEC0C0020B7
:10136C000044004080B500AF114B124A1A60104B7C
:10137C004FF4E1325A600E4B00229A600C4B002263
:10138C00DA600B4B00221A61094B0C225A61084B94
:10139C0000229A61064B0022DA61054804F01BFB1F
:1013AC000346002B01D000F013F900BF80BD00BF35
:1013BC00340D00200048004080B582B000AF0C4BCB
:1013CC005B690B4A43F001035361094B5B6903F002
:1013DC0001037B607B68002200210D2000F0BDFE24
:1013EC000D2000F0D6FE00BF0837BD4680BD00BF03
:1013FC000010024080B588B000AF07F11003002246
:10140C001A605A609A60DA60394B9B69384A43F02B
:10141C0010039361364B9B6903F01003FB60FB6870
:10142C00334B9B69324A43F020039361304B9B69E9
:10143C0003F02003BB60BB682D4B9B692C4A43F027
:10144C00040393612A4B9B6903F004037B607B6864
:10145C00274B9B69264A43F008039361244B9B69F5
:10146C0003F008033B603B6800224FF40051214815
:10147C0001F0DCFA00224FF440511F4801F0D6FA7B
:10148C0000224FF41C411D4801F0D0FA4FF40053D8
:10149C003B6101237B610023BB610223FB6107F1EC
:1014AC0010031946134801F03DF94FF440533B61CA
:1014BC0001237B610023BB610223FB6107F1100355
:1014CC0019460D4801F02EF94FF41C433B610123E2
:1014DC007B610023BB610223FB6107F110031946FA
:1014EC00064801F01FF900BF2037BD4680BD00BF84
:1014FC000010024000100140000C014000080140A7
:10150C0080B582B000AF78600B467B807B681B682F
:10151C00104A934219D17B88B3F5807F0FD80E4BBC
:10152C001B78002B0BD17B881A460C490C4805F014
:10153C0086FC0C4A7B881380074B01221A70C82248
:10154C000649094804F0F1FA00E000BF0837BD462F
:10155C0080BD00BF00480040880F0020C00E002056
:10156C00C00D00208A0F0020340D002080B582B001
:10157C0000AF78607B68084A934209D10122074981
:10158C00054804F0ADFA00F007FD0346044A136069
:10159C0000BF0837BD4680BDEC0C00208C0000203D
:1015AC009000002080B483B000AF78607B681B682B
:1015BC00054A934202D1054B00221A7000BF0C372A
:1015CC00BD4680BC704700BF004400409400002022
:1015DC0080B400AF72B600BF00BFFDE780B500AFAE
:1015EC0000F0DAFC02460C4B1B68D31A462B10D9C0
:1015FC000A4B1B780133DAB2084B1A70084B1B7874
:10160C000133DAB2064B1A7000F0C6FC0346024AEC
:10161C00136000BF80BD00BF8C0F002000000020B5
:10162C000100002080B500AF1E4B1B784F2B06D855
:10163C001D4B1B784F2B02D8FFF7D0FF0DE0194B39
:10164C001B78502B03D8184B1B78502B05D9154BF6
:10165C0050221A70144B50221A70124B1A78134BDA
:10166C001B685A63104B1A78104B1B689A63012243
:10167C004FF480610E4801F0D9F900224FF400615B
:10168C000B4801F0D3F901224FF48051084801F0C6
:10169C00CDF900224FF40041054801F0C7F900BF15
:1016AC0080BD00BF00000020010000205C0C002069
:1016BC000008014080B500AF0F4B1A780F4B1B6828
:1016CC009A6300224FF480610D4801F0AFF90022BB
:1016DC004FF400610A4801F0A9F901224FF480513E
:1016EC00074801F0A3F900224FF40041044801F02F
:1016FC009DF900BF80BD00BF010000205C0C0020E4
:10170C000008014080B500AF0F4B1A780F4B1B68D7
:10171C005A6301224FF480610D4801F087F90022D1
:10172C004FF400610A4801F081F900224FF4805116
:10173C00074801F07BF900224FF40041044801F006
:10174C0075F900BF80BD00BF000000205C0C0020BC
:10175C000008014080B500AF124B1A78124B1B6881
:10176C005A63124B1B789B08DAB20F4B1B689A63B7
:10177C0001224FF480610E4801F058F900224FF419
:10178C0000610B4801F052F901224FF480510848D6
:10179C0001F04CF900224FF40041054801F046F9E4
:1017AC0000BF80BD000000205C0C00200100002068
:1017BC000008014080B500AF124B1B789B08DAB2D1
:1017CC00114B1B685A63114B1A780F4B1B689A63A9
:1017DC0001224FF480610E4801F028F900224FF4E9
:1017EC0000610B4801F022F901224FF480510848A6
:1017FC0001F01CF900224FF40041054801F016F9E4
:10180C0000BF80BD000000205C0C00200100002007
:10181C000008014080B500AF114B1A78114B1B68C2
:10182C005A63114B1A780F4B1B689A6300224FF4C2
:10183C0080610E4801F0FAF801224FF400610B4868
:10184C0001F0F4F800224FF48051084801F0EEF852
:10185C0001224FF40041054801F0E8F800BF80BDBB
:10186C00000000205C0C002001000020000801405A
:10187C0080B500AF124B1B789B08DAB2114B1B687A
:10188C005A63114B1A780F4B1B689A6300224FF462
:10189C0080610E4801F0CAF801224FF400610B4838
:1018AC0001F0C4F800224FF48051084801F0BEF852
:1018BC0001224FF40041054801F0B8F800BF80BD8B
:1018CC00000000205C0C00200100002000080140FA
:1018DC0080B500AF124B1A78124B1B685A63124B2F
:1018EC001B789B08DAB20F4B1B689A6300224FF4EB
:1018FC0080610E4801F09AF801224FF400610B4808
:10190C0001F094F800224FF48051084801F08EF851
:10191C0001224FF40041054801F088F800BF80BD5A
:10192C00000000205C0C0020010000200008014099
:10193C0080B500AF00224FF480610B4801F076F8BF
:10194C0000224FF40061084801F070F800224FF4B7
:10195C008051054801F06AF800224FF4004102481A
:10196C0001F064F800BF80BD0008014080B485B070
:10197C0000AF154B9B69144A43F001039361124B62
:10198C009B6903F00103BB60BB680F4BDB690E4A1C
:10199C0043F08053D3610C4BDB6903F080537B60C5
:1019AC007B680A4B5B68FB60FB6823F0E063FB60C1
:1019BC00FB6843F00073FB60044AFB68536000BF94
:1019CC001437BD4680BC7047001002400000014037
:1019DC0080B588B000AF786007F1100300221A6060
:1019EC005A609A60DA607B681B68194A93422BD163
:1019FC00184B9B69174A43F008039361154B9B697D
:101A0C0003F00803FB60FB68C0233B6112237B617E
:101A1C000323FB6107F1100319460F4800F082FE07
:101A2C000C4BDB690B4A43F40013D361094BDB69A4
:101A3C0003F40013BB60BB68002200211F2000F0E0
:101A4C008CFB1F2000F0A5FB00BF2037BD4680BDDE
:101A5C000054004000100240000C014080B485B0DE
:101A6C0000AF78607B681B68094A93420BD1094B25
:101A7C009B69084A43F400639361064B9B6903F42A
:101A8C000063FB60FB6800BF1437BD4680BC704729
:101A9C00002C01400010024080B485B000AF78608B
:101AAC007B681B68B3F1804F0BD1084BDB69074A8D
:101ABC0043F00103D361054BDB6903F00103FB60C9
:101ACC00FB6800BF1437BD4680BC70470010024055
:101ADC0080B588B000AF786007F1100300221A605F
:101AEC005A609A60DA607B681B681F4A934219D16E
:101AFC001E4B9B691D4A43F0040393611B4B9B696E
:101B0C0003F00403FB60FB684FF440733B6102235A
:101B1C007B610223FB6107F110031946144800F0A6
:101B2C0001FE1CE07B681B68B3F1804F17D10F4B93
:101B3C009B690E4A43F0040393610C4B9B6903F0C1
:101B4C000403BB60BB6801233B6102237B6102235E
:101B5C00FB6107F110031946054800F0E3FD00BFD7
:101B6C002037BD4680BD00BF002C01400010024054
:101B7C000008014080B58AB000AF786007F1180307
:101B8C0000221A605A609A60DA607B681B68524ABD
:101B9C00934238D1514BDB69504A43F40033D36143
:101BAC004E4BDB6903F400337B617B694B4B9B69C8
:101BBC004A4A43F004039361484B9B6903F00403C6
:101BCC003B613B690423BB610223FB6103237B6202
:101BDC0007F118031946424800F0A4FD0823BB6125
:101BEC000023FB6100233B6207F1180319463C48B4
:101BFC0000F098FD00220021262000F0AEFA2620ED
:101C0C0000F0C7FA64E07B681B68364A93425FD1E8
:101C1C00324BDB69314A43F48023D3612F4BDB69B0
:101C2C0003F48023FB60FB682C4B9B692B4A43F02D
:101C3C0008039361294B9B6903F00803BB60BB68E5
:101C4C004FF48063BB610223FB6103237B6207F1CA
:101C5C0018031946244800F065FD4FF40063BB617E
:101C6C000023FB6100233B6207F1180319461E4851
:101C7C0000F058FD1D4B1E4A1A601C4B00225A6086
:101C8C001A4B00229A60194B8022DA60174B002203
:101C9C001A61164B00225A61144B00229A61134BA5
:101CAC000022DA61114800F08FFA0346002B01D0B4
:101CBC00FFF78EFC7B680D4ADA630C4A7B68536233
:101CCC0000220021272000F048FA272000F061FABA
:101CDC0000BF2837BD4680BD0044004000100240C4
:101CEC000008014000480040000C01407C0D002021
:101CFC003000024080B400AF00BFFDE780B400AFFD
:101D0C0000BFFDE780B400AF00BFFDE780B400AFBB
:101D1C0000BFFDE780B400AF00BFFDE780B400AFAB
:101D2C0000BFBD4680BC704780B400AF00BFBD464D
:101D3C0080BC704780B400AF00BFBD4680BC70470C
:101D4C0080B500AF00F016F900BF80BD80B500AFC4
:101D5C00024800F0A7FB00BF80BD00BF7C0D002037
:101D6C0080B500AF024800F0D1FF00BF80BD00BFBE
:101D7C00080C002080B500AF024803F02FFF00BF15
:101D8C0080BD00BFEC0C002080B500AF024803F012
:101D9C0025FF00BF80BD00BF340D002080B586B08C
:101DAC0000AFF860B9607A6000237B610AE0AFF3A2
:101DBC0000800146BB685A1CBA60CAB21A707B69B3
:101DCC0001337B617A697B689A42F0DB7B68184649
:101DDC001837BD4680BD80B483B000AF78604FF03B
:101DEC00FF3318460C37BD4680BC704780B483B0B7
:101DFC0000AF786039603B684FF400525A600023A2
:101E0C0018460C37BD4680BC704780B485B000AF17
:101E1C00F860B9607A60002318461437BD4680BC60
:101E2C007047000080B586B000AF7860144A154B3F
:101E3C00D31A7B617B693B61134B1B68002B02D16E
:101E4C00114B124A1A60104B1A687B6813443A699A
:101E5C009A4207D204F0C6FF03460C221A604FF0D8
:101E6C00FF3309E0084B1B68FB60074B1A687B6863
:101E7C001344054A1360FB6818461837BD4680BDED
:101E8C000050002000040000900F0020E8100020FB
:101E9C0080B400AF00BFBD4680BC7047FFF7F8FFB1
:101EAC000B480C490C4A002302E0D458C4500433AC
:101EBC00C4188C42F9D3094A094C002301E0136081
:101ECC000432A242FBD304F093FFFFF745F87047AE
:101EDC00000000206C000020707900086C000020CD
:101EEC00E4100020FEE7000080B500AF084B1B6833
:101EFC00074A43F010031360032000F023F90F206E
:101F0C0000F008F8FFF732FD0023184680BD00BF33
:101F1C000020024080B582B000AF7860124B1A6886
:101F2C00124B1B7819464FF47A73B3FBF1F3B2FBE7
:101F3C00F3F3184600F03BF90346002B01D00123C4
:101F4C000EE07B680F2B0AD8002279684FF0FF3027
:101F5C0000F003F9064A7B681360002300E00123BC
:101F6C0018460837BD4680BD040000200C00002038
:101F7C000800002080B400AF054B1B781A46054BB7
:101F8C001B681344034A136000BFBD4680BC7047F6
:101F9C000C000020940F002080B400AF024B1B6893
:101FAC001846BD4680BC7047940F002080B485B0A5
:101FBC0000AF78607B6803F00703FB600C4BDB68B9
:101FCC00BB60BA684FF6FF031340BB60FB681A0294
:101FDC00BB68134343F0BF6343F40033BB60044A54
:101FEC00BB68D36000BF1437BD4680BC704700BFD0
:101FFC0000ED00E080B400AF044BDB681B0A03F07B
:10200C0007031846BD4680BC704700BF00ED00E0DA
:10201C0080B483B000AF0346FB7197F90730002BF7
:10202C000BDBFB7903F01F02064997F907305B09BC
:10203C00012000FA02F241F8232000BF0C37BD4604
:10204C0080BC704700E100E080B483B000AF034671
:10205C003960FB7197F90730002B0ADB3B68DAB269
:10206C000C4997F907301201D2B20B4483F80023C4
:10207C000AE03B68DAB20849FB7903F00F03043B32
:10208C001201D2B20B441A7600BF0C37BD4680BC8D
:10209C00704700BF00E100E000ED00E080B489B0C3
:1020AC0000AFF860B9607A60FB6803F00703FB616E
:1020BC00FB69C3F10703042B28BF0423BB61FB6935
:1020CC000433062B02D9FB69033B00E000237B6140
:1020DC004FF0FF32BB6902FA03F3DA43BB681A40D4
:1020EC007B699A404FF0FF317B6901FA03F3D943C6
:1020FC007B680B40134318462437BD4680BC7047A1
:10210C0080B582B000AF78607B68013BB3F1807F13
:10211C0001D301230FE00A4A7B68013B53600F2176
:10212C004FF0FF30FFF790FF054B00229A60044BF5
:10213C0007221A60002318460837BD4680BD00BF31
:10214C0010E000E080B582B000AF78607868FFF7EF
:10215C002DFF00BF0837BD4680BD80B586B000AFEF
:10216C000346B9607A60FB7300237B61FFF742FF83
:10217C0078617A68B9687869FFF790FF024697F939
:10218C000F3011461846FFF75FFF00BF1837BD46EA
:10219C0080BD80B582B000AF0346FB7197F9073064
:1021AC001846FFF735FF00BF0837BD4680BD80B528
:1021BC0082B000AF78607868FFF7A2FF034618463C
:1021CC000837BD4680BD000080B485B000AF786094
:1021DC000023FB607B68002B01D1012343E07B686B
:1021EC001B681A46224B1344224AA2FB03231B09E9
:1021FC009A007B681A647B681F4ADA637B68022248
:10220C0083F821207B681B681B68FB60FB6823F448
:10221C007F5323F03003FB607B685A687B689B68B4
:10222C001A437B68DB681A437B681B691A437B681B
:10223C005B691A437B689B691A437B68DB691343B0
:10224C00FA681343FB607B681B68FA681A607B684A
:10225C0000229A637B68012283F821207B6800228C
:10226C0083F82020002318461437BD4680BC7047E5
:10227C00F8FFFDBFCDCCCCCC0000024080B586B0C1
:10228C0000AFF860B9607A603B600023FB75FB68B7
:10229C0093F82030012B01D102234BE0FB68012283
:1022AC0083F82020FB6893F82130DBB2012B3AD164
:1022BC00FB68022283F82120FB6800229A63FB68EA
:1022CC001B681A68FB681B6822F001021A603B68E5
:1022DC007A68B968F86800F0F8F9FB68DB6A002BDB
:1022EC0008D0FB681B681A68FB681B6842F00E027A
:1022FC001A600FE0FB681B681A68FB681B6822F009
:10230C0004021A60FB681B681A68FB681B6842F0C1
:10231C000A021A60FB681B681A68FB681B6842F0AB
:10232C0001021A6005E0FB68002283F820200223DA
:10233C00FB75FB7D18461837BD4680BD80B485B053
:10234C0000AF78600023FB737B6893F82130DBB21D
:10235C00022B08D07B6804229A637B68002283F8E6
:10236C002020012320E07B681B681A687B681B68AF
:10237C0022F00E021A607B681B681A687B681B6867
:10238C0022F001021A607B681A6C7B68DB6B0121FE
:10239C0001FA02F25A607B68012283F821207B68E3
:1023AC00002283F82020FB7B18461437BD4680BCE6
:1023BC007047000080B584B000AF78600023FB73D9
:1023CC007B6893F82130DBB2022B05D07B680422AA
:1023DC009A630123FB7351E07B681B681A687B6866
:1023EC001B6822F00E021A607B681B681A687B68F7
:1023FC001B6822F001021A607B681B68224A934218
:10240C0029D07B681B68214A934222D07B681B68C9
:10241C001F4A93421AD07B681B681E4A934212D003
:10242C007B681B681C4A93420AD07B681B681B4A5A
:10243C00934202D14FF480130EE04FF080730BE007
:10244C004FF4803308E04FF4805305E04FF4807371
:10245C0002E0102300E00123114A53607B68012243
:10246C0083F821207B68002283F820207B685B6B3B
:10247C00002B03D07B685B6B78689847FB7B184616
:10248C001037BD4680BD00BF080002401C00024052
:10249C003000024044000240580002406C000240F0
:1024AC000000024080B584B000AF78607B68DB6BC5
:1024BC001B68FB607B681B681B68BB607B681B6CC4
:1024CC0004229A40FB681340002B4FD0BB6803F0EA
:1024DC000403002B4AD07B681B681B6803F02003A5
:1024EC00002B07D17B681B681A687B681B6822F07D
:1024FC0004021A607B681B68664A934229D07B6889
:10250C001B68654A934222D07B681B68634A9342DE
:10251C001AD07B681B68624A934212D07B681B6896
:10252C00604A93420AD07B681B685F4A934202D18F
:10253C004FF480030EE04FF080630BE04FF48023E8
:10254C0008E04FF4804305E04FF4806302E0402341
:10255C0000E00423554A53607B68DB6A002B00F0D3
:10256C0094807B68DB6A786898478EE07B681B6C8C
:10257C0002229A40FB681340002B56D0BB6803F034
:10258C000203002B51D07B681B681B6803F02003EF
:10259C00002B0BD17B681B681A687B681B6822F0C8
:1025AC000A021A607B68012283F821207B681B6871
:1025BC00384A934229D07B681B68374A934222D011
:1025CC007B681B68354A93421AD07B681B68344A77
:1025DC00934212D07B681B68324A93420AD07B68C4
:1025EC001B68314A934202D14FF400130EE04FF0B6
:1025FC0000730BE04FF4003308E04FF4005305E098
:10260C004FF4007302E0202300E00223274A5360BA
:10261C007B68002283F820207B689B6A002B34D0D7
:10262C007B689B6A786898472FE07B681B6C082254
:10263C009A40FB681340002B28D0BB6803F00803BA
:10264C00002B23D07B681B681A687B681B6822F000
:10265C000E021A607B681A6C7B68DB6B012101FA35
:10266C0002F25A607B6801229A637B68012283F82C
:10267C0021207B68002283F820207B681B6B002BB9
:10268C0004D07B681B6B7868984700BF00BF10377D
:10269C00BD4680BD080002401C00024030000240D4
:1026AC0044000240580002406C000240000002400E
:1026BC0080B483B000AF78607B6893F82130DBB2D4
:1026CC0018460C37BD4680BC704780B485B000AF4F
:1026DC00F860B9607A603B60FB681A6CFB68DB6B76
:1026EC00012101FA02F25A60FB681B683A685A60D1
:1026FC00FB685B68102B08D1FB681B687A689A60D2
:10270C00FB681B68BA68DA6007E0FB681B68BA688C
:10271C009A60FB681B687A68DA6000BF1437BD46A4
:10272C0080BC704780B48BB000AF786039600023F8
:10273C007B6200233B6269E101227B6A02FA03F3AC
:10274C00FB613B681B68FA691340BB61BA69FB69A2
:10275C009A4240F058813B685B689A4A93425ED03B
:10276C00984A934275D8984A934258D0964A9342C5
:10277C006FD8964A934252D0944A934269D8944A5D
:10278C0093424CD0924A934263D8924A934246D099
:10279C00904A93425DD8122B2AD8122B59D801A2F9
:1027AC0052F823F02B2800080528000817280008E9
:1027BC00592800085F2800085F2800085F280008D7
:1027CC005F2800085F2800085F2800085F280008C1
:1027DC005F2800085F2800085F2800085F280008B1
:1027EC005F2800085F2800080D2800082128000831
:1027FC00794A934213D02CE03B68DB683B6229E0BA
:10280C003B68DB6804333B6224E03B68DB680833DD
:10281C003B621FE03B68DB680C333B621AE03B68B1
:10282C009B68002B02D104233B6213E03B689B683E
:10283C00012B05D108233B627B68FA691A6109E018
:10284C0008233B627B68FA695A6103E000233B6210
:10285C0000E000BFBB69FF2B01D87B6801E07B68FF
:10286C0004337B61BB69FF2B02D87B6A9B0002E0BF
:10287C007B6A083B9B003B617B691A680F213B69B3
:10288C0001FA03F3DB431A40396A3B6901FA03F39B
:10289C001A437B691A603B685B6803F08053002B1A
:1028AC0000F0B1804D4B9B694C4A43F0010393619E
:1028BC004A4B9B6903F00103BB60BB68484A7B6AC7
:1028CC009B08023352F82330FB607B6A03F003034E
:1028DC009B000F2202FA03F3DB43FA681340FB6000
:1028EC007B68404A934213D07B683F4A93420DD099
:1028FC007B683E4A934207D07B683D4A934201D1A4
:10290C00032306E0042304E0022302E0012300E099
:10291C0000237A6A02F0030292009340FA68134390
:10292C00FB602F497B6A9B080233FA6841F823202D
:10293C003B685B6803F48013002B06D02D4B9A6820
:10294C002C49BB6913438B6006E02A4B9A68BB6920
:10295C00DB43284913408B603B685B6803F400132E
:10296C00002B06D0234BDA682249BB691343CB609A
:10297C0006E0204BDA68BB69DB431E491340CB6091
:10298C003B685B6803F40033002B06D0194B5A6884
:10299C001849BB6913434B6006E0164B5A68BB6978
:1029AC00DB43144913404B603B685B6803F4803392
:1029BC00002B21D00F4B1A680E49BB6913430B60D7
:1029CC0021E000BF00003210000031100000221086
:1029DC000000211000001210000011100010024025
:1029EC000000014000080140000C014000100140B3
:1029FC0000140140000401400B4B1A68BB69DB4317
:102A0C00094913400B607B6A01337B623B681A688F
:102A1C007B6A22FA03F3002B7FF48EAE00BF00BF5B
:102A2C002C37BD4680BC70470004014080B483B095
:102A3C0000AF78600B467B8013467B707B78002B55
:102A4C0003D07A887B681A6103E07B881A047B6860
:102A5C001A6100BF0C37BD4680BC704780B584B08E
:102A6C0000AF78607B68002B01D101232BE17B68E0
:102A7C0093F83D30DBB2002B06D17B68002283F843
:102A8C003C207868FEF7A4FF7B68242283F83D2065
:102A9C007B681B681A687B681B6822F001021A604D
:102AAC007B681B681A687B681B6842F400421A60DA
:102ABC007B681B681A687B681B6822F400421A60EA
:102ACC0002F0C6F8F8607B685B68814A934207D8CD
:102ADC00FB68804A934294BF01230023DBB206E0DB
:102AEC00FB687D4A934294BF01230023DBB2002B89
:102AFC0001D00123E7E0FB68784AA2FB03239B0C7F
:102B0C00BB607B681B685B6823F03F017B681B68BC
:102B1C00BA680A435A607B681B681B6A23F03F0142
:102B2C007B685B686A4A934202D8BB68013309E050
:102B3C00BB684FF4967202FB03F3694AA2FB0323B2
:102B4C009B0901337A6812680B4313627B681B681C
:102B5C00DB6923F44F4222F0FF027B685B685C491F
:102B6C008B4219D8FB68591E7B685B685B00B1FB14
:102B7C00F3F3591C40F6FC730B40002B0AD0FB6896
:102B8C00591E7B685B685B00B1FBF3F30133C3F345
:102B9C000B0351E004234FE07B689B68002B11D1A1
:102BAC00FB68581E7B6859680B465B000B44B0FBF6
:102BBC00F3F30133C3F30B03002B0CBF01230023EE
:102BCC00DBB212E0FB68581E7B6859680B469B0011
:102BDC000B4499000B44B0FBF3F30133C3F30B0329
:102BEC00002B0CBF01230023DBB2002B01D00123EF
:102BFC0022E07B689B68002B0ED1FB68581E7B681B
:102C0C0059680B465B000B44B0FBF3F30133C3F381
:102C1C000B0343F400430FE0FB68581E7B685968B4
:102C2C000B469B000B4499000B44B0FBF3F30133B0
:102C3C00C3F30B0343F44043796809681343CB6136
:102C4C007B681B681B6823F0C0017B68DA697B68B2
:102C5C001B6A1A437B681B680A431A607B681B68F3
:102C6C009B6823F4034323F0FF037A6811697A68A5
:102C7C00D26811437A6812680B4393607B681B68B7
:102C8C00DB6823F0FF017B685A697B689B691A43F8
:102C9C007B681B680A43DA607B681B681A687B6870
:102CAC001B6842F001021A607B6800221A647B6880
:102CBC00202283F83D207B6800221A637B68002267
:102CCC0083F83E20002318461037BD4680BD00BF58
:102CDC00A08601007F841E00FF083D0083DE1B439D
:102CEC00D34D621080B483B000AF78607B681B68F2
:102CFC005B6903F08003802B03D17B681B68002287
:102D0C001A6100BF0C37BD4680BC704780B588B0D7
:102D1C0000AF78600023BB617B681B685B687B61DC
:102D2C007B68DB6A3B617B6893F83E30FB737B68A6
:102D3C0093F83D30BB73FB7B102B03D0FB7B402BFC
:102D4C0040F0C1807B681B689B69BB617B681B681A
:102D5C005B69FB61FB6903F00103002B0DD13B693F
:102D6C00B3F52A0F03D03B69B3F12A4F01D10123EC
:102D7C0000E00023012B00F03281FB6903F001031A
:102D8C00002B0CD07B695B0A03F00103002B06D0EF
:102D9C00786801F079FB786800F0EAFC92E0FB6956
:102DAC00DB0803F00103002B09D07B695B0A03F0FD
:102DBC000103002B03D0786800F05FFD82E0FB6913
:102DCC005B0803F00103002B09D07B695B0A03F05D
:102DDC000103002B03D0786800F078FD72E0BB692A
:102DEC009B0803F00103002B3BD07B681B685B68DE
:102DFC0003F40063B3F5006F00F0F380FB69DB09AB
:102E0C0003F00103002B0FD07B699B0A03F0010335
:102E1C00002B09D0FB699B0803F00103002B03D1A5
:102E2C00786800F042F94DE0FB699B0803F0010360
:102E3C00002B00F0D6807B695B0A03F00103002BAA
:102E4C0000F0CF80BB7B212B03D1786800F0C9F94F
:102E5C00C7E0FB7B402B40F0C480786800F037FA69
:102E6C00BFE07B681B685B6803F40063B3F5006F1D
:102E7C0000F0B780FB699B0903F00103002B0FD016
:102E8C007B699B0A03F00103002B09D0FB699B08AB
:102E9C0003F00103002B03D1786800F0B0FA11E0C5
:102EAC00FB699B0803F00103002B00F09A807B69FF
:102EBC005B0A03F00103002B00F09380786800F0AC
:102ECC0066FB8EE08DE07B681B6C002B04D07B686E
:102EDC001B685B69FB6107E07B681B689B69BB61D6
:102EEC007B681B685B69FB61FB695B0803F0010392
:102EFC00002B12D07B695B0A03F00103002B0CD072
:102F0C007B681B6C002B03D07B681B689B69BB61C7
:102F1C00B969786800F031FF66E0FB691B0903F0C2
:102F2C000103002B09D07B695B0A03F00103002B22
:102F3C0003D0786800F06CFF56E0BB7B212B02D0ED
:102F4C00BB7B292B25D1FB69DB0903F00103002B8B
:102F5C000FD07B699B0A03F00103002B09D0FB699E
:102F6C009B0803F00103002B03D1786800F049FEA5
:102F7C0039E0FB699B0803F00103002B33D07B691C
:102F8C005B0A03F00103002B2DD0786800F076FE6D
:102F9C0029E0FB699B0903F00103002B0FD07B692F
:102FAC009B0A03F00103002B09D0FB699B0803F07B
:102FBC000103002B03D1786800F080FE14E0FB695C
:102FCC009B0803F00103002B0ED07B695B0A03F016
:102FDC000103002B08D0786800F0AEFE04E000BFBF
:102FEC0002E000BF00E000BF2037BD4680BD80B4CA
:102FFC0083B000AF786000BF0C37BD4680BC704713
:10300C0080B483B000AF786000BF0C37BD4680BC85
:10301C00704780B483B000AF786000BF0C37BD46FA
:10302C0080BC704780B483B000AF786000BF0C37B1
:10303C00BD4680BC704780B483B000AF78600B464F
:10304C00FB7013463B8000BF0C37BD4680BC7047FD
:10305C0080B483B000AF786000BF0C37BD4680BC35
:10306C00704780B483B000AF786000BF0C37BD46AA
:10307C0080BC704780B483B000AF786000BF0C3761
:10308C00BD4680BC704780B483B000AF786000BF91
:10309C000C37BD4680BC704780B483B000AF7860FD
:1030AC0000BF0C37BD4680BC704780B584B000AF04
:1030BC0078607B6893F83D30FB737B6893F83E3007
:1030CC00BB737B68DB6ABB607B681B8D002B50D1AC
:1030DC00FB7B212B4DD1BB68082B1DD0BB68202B53
:1030EC001AD0BB6813F5803F16D07B681B685A68F2
:1030FC007B681B6822F4E0625A607B6811221A63B9
:10310C007B68002283F83E207B68202283F83D20D8
:10311C007868FFF76CFF60E07B681B685A687B6817
:10312C001B6822F4E0625A607B681B681A687B6833
:10313C001B6842F400721A607B6800221A637B6879
:10314C00202283F83D207B6893F83E30DBB2402B85
:10315C0007D17B68002283F83E207868FFF781FF57
:10316C003BE07B68002283F83E207868FFF73FFF46
:10317C0033E0FB7B212B05D0BB7B402B2DD1FB7B84
:10318C00222B2AD17B685B8D9BB2002B08D17B68EC
:10319C001B685A687B681B6822F480625A601CE0CA
:1031AC007B6893F83E30DBB2402B03D1786800F09B
:1031BC008EF812E07B685B6A1A787B681B681A6170
:1031CC007B685B6A5A1C7B685A627B685B8D9BB21E
:1031DC00013B9AB27B685A85FFE700BF1037BD46AA
:1031EC0080BD80B584B000AF78607B68DB6AFB6023
:1031FC007B6893F83D30DBB2212B64D17B685B8D0F
:10320C009BB2002B12D07B685B6A1A787B681B68B8
:10321C001A617B685B6A5A1C7B685A627B685B8D9F
:10322C009BB2013B9AB27B685A854CE0FB68082B39
:10323C001DD0FB68202B1AD0FB6813F5803F16D0ED
:10324C007B681B685A687B681B6822F4E0625A60D2
:10325C007B6811221A637B68002283F83E207B680E
:10326C00202283F83D207868FFF7C1FE2BE07B68B5
:10327C001B685A687B681B6822F4E0625A607B68A2
:10328C001B681A687B681B6842F400721A607B68C2
:10329C0000221A637B68202283F83D207B6893F818
:1032AC003E30DBB2402B07D17B68002283F83E20F6
:1032BC007868FFF7D6FE06E07B68002283F83E2094
:1032CC007868FFF794FE00BF1037BD4680BD80B50F
:1032DC0084B000AF78607B6893F83D30FB737B68FB
:1032EC001B6D002B1DD17B68DB6C012B0BD17B681C
:1032FC009B6CDAB27B681B681A617B681B6D9A1C2D
:10330C007B681A6577E07B689B6C9BB21B12DAB208
:10331C007B681B681A617B681B6D5A1C7B681A657D
:10332C0069E07B681B6D012B0BD17B689B6CDAB25F
:10333C007B681B681A617B681B6D5A1C7B681A655D
:10334C0059E07B681B6D022B52D1FB7B222B0DD1DC
:10335C007B681B681A687B681B6842F480721A6071
:10336C007B681B6D5A1C7B681A6544E07B685B8D1F
:10337C009BB2002B15D0FB7B212B12D17B685B6A97
:10338C001A787B681B681A617B685B6A5A1C7B68BD
:10339C005A627B685B8D9BB2013B9AB27B685A8503
:1033AC0029E07B685B8D9BB2002B24D1FB7B212B0E
:1033BC0021D17B681B685A687B681B6822F4E06229
:1033CC005A607B681B681A687B681B6842F4007241
:1033DC001A607B6800221A637B68202283F83D20E8
:1033EC007B68002283F83E207868FFF73AFE02E003
:1033FC007868FFF777FC00BF1037BD4680BD80B5FD
:10340C0084B000AF78607B6893F83D30DBB2222B40
:10341C0040F0B9807B68DB6AFB607B685B8D9BB29C
:10342C00BB60BB68032B21D97B681B681A697B685E
:10343C005B6AD2B21A707B685B6A5A1C7B685A62F0
:10344C007B685B8D9BB2013B9AB27B685A857B682B
:10345C005B8D9BB2032B40F096807B681B685A688F
:10346C007B681B6822F480625A608CE07B68DB6AA4
:10347C00022B7FD0BB68012B02D0BB68002B79D10B
:10348C00786800F0CFFF0346002B4CD17B681B689B
:10349C001A687B681B6822F480621A607B681B6860
:1034AC005A687B681B6822F4E0625A607B681B6870
:1034BC001A697B685B6AD2B21A707B685B6A5A1CA9
:1034CC007B685A627B685B8D9BB2013B9AB27B68CE
:1034DC005A857B68202283F83D207B6893F83E3028
:1034EC00DBB2402B0AD17B68002283F83E207B683C
:1034FC0000221A637868FFF7BDFD44E07B68002268
:10350C0083F83E20FB68082B02D0FB68202B03D1EC
:10351C007B6800221A6302E07B6812221A637868C7
:10352C00FFF76EFD2FE07B681B685A687B681B6891
:10353C0022F4E0625A607B681B681A697B685B6ADC
:10354C00D2B21A707B685B6A5A1C7B685A627B68C1
:10355C005B8D9BB2013B9AB27B685A857B682022BB
:10356C0083F83D207B68002283F83E207868FFF7C3
:10357C008AFD08E07B681B685A687B681B6822F42C
:10358C0080625A60FFE700BF1037BD4680BD80B532
:10359C0084B000AF78607B68DB6AFB607B685B8D16
:1035AC009BB2042B1BD17B681B685A687B681B6819
:1035BC0022F480625A607B681B681A697B685B6ABC
:1035CC00D2B21A707B685B6A5A1C7B685A627B6841
:1035DC005B8D9BB2013B9AB27B685A85C4E07B68D9
:1035EC005B8D9BB2032B29D17B681B685A687B6867
:1035FC001B6822F480625A60FB68042B0AD0FB68BB
:10360C00022B07D07B681B681A687B681B6822F446
:10361C0080621A607B681B681A697B685B6AD2B22D
:10362C001A707B685B6A5A1C7B685A627B685B8D7C
:10363C009BB2013B9AB27B685A8595E07B685B8DA7
:10364C009BB2022B7DD1FB68012B02D0FB68102BA7
:10365C0008D17B681B681A687B681B6822F480623F
:10366C001A6016E0FB68042B02D0FB68022B08D111
:10367C007B681B681A687B681B6842F480621A605E
:10368C0007E07B681B681A687B681B6842F4007251
:10369C001A607B681B681A697B685B6AD2B21A7005
:1036AC007B685B6A5A1C7B685A627B685B8D9BB239
:1036BC00013B9AB27B685A857B681B681A697B68E8
:1036CC005B6AD2B21A707B685B6A5A1C7B685A625E
:1036DC007B685B8D9BB2013B9AB27B685A857B6899
:1036EC001B685A687B681B6822F440725A607B68BE
:1036FC00202283F83D207B6893F83E30DBB2402BD0
:10370C000AD17B68002283F83E207B6800221A6372
:10371C007868FFF7AFFC27E07B68002283F83E2037
:10372C00FB68082B02D0FB68202B03D17B6800229E
:10373C001A6302E07B6812221A637868FFF760FC58
:10374C0012E07B681B681A697B685B6AD2B21A70DC
:10375C007B685B6A5A1C7B685A627B685B8D9BB288
:10376C00013B9AB27B685A8500BF1037BD4680BDBD
:10377C0080B483B000AF78607B6893F83E30DBB2E6
:10378C00402B17D17B681B6D002B09D17B685B6CC0
:10379C00DBB21A467B681B6802F0FE021A6167E016
:1037AC007B685B6CDBB243F00103DAB27B681B68AD
:1037BC001A615DE07B681B69B3F5804F33D17B6880
:1037CC0093F83D30DBB2212B09D17B685B6CDBB20B
:1037DC001A467B681B6802F0FE021A6108E07B68DF
:1037EC005B6CDBB243F00103DAB27B681B681A61D5
:1037FC007B685B6B002B04D07B685B6B9B6A002B3C
:10380C0008D17B689B6B002B32D07B689B6B9B6ACF
:10381C00002B2DD07B681B685A687B681B6842F4B0
:10382C0000625A6024E07B681B6D002B0ED17B6814
:10383C005B6C9BB2DB11DBB203F00603DBB263F013
:10384C000F03DAB27B681B681A6111E07B681B6D91
:10385C00012B0DD17B685B6C9BB2DB11DBB203F0EF
:10386C000603DBB263F00E03DAB27B681B681A61E5
:10387C0000BF0C37BD4680BC704780B483B000AF2E
:10388C0078607B685B6CDAB27B681B681A617B685A
:10389C005B6B002B04D07B685B6B9B6A002B08D1A5
:1038AC007B689B6B002B0CD07B689B6B9B6A002B03
:1038BC0007D07B681B685A687B681B6842F40062FF
:1038CC005A6000BF0C37BD4680BC704780B491B0C5
:1038DC0000AF78607B6893F83E3087F83F307B68A8
:1038EC00DB6ABB637B681B6B7B637B6893F83D3047
:1038FC00DBB2222B40F074817B681B6D002B0FD147
:10390C0097F83F30402B0BD100233B637B681B683F
:10391C005B693B637B681B689B693B633B6B6BE13F
:10392C007B681B6D002B1DD17B681B69B3F5404F69
:10393C0018D10023FB627B681B685B69FB627B68A8
:10394C001B689B69FB62FB6A7B681B681A687B6857
:10395C001B6842F480721A607B681B6D5A1C7B6872
:10396C001A6549E17B685B8D9BB2002B13D1002358
:10397C00BB627B681B685B69BB627B681B689B696D
:10398C00BB62BB6A7B681B681A687B681B6842F465
:10399C0000721A6020E17B685B8D9BB2012B40F0BA
:1039AC008A80BB6B13F5803F37D17B681B681A6824
:1039BC007B681B6822F480621A607B681B685B68FA
:1039CC0003F40063B3F5006F13D17B681B681A68AE
:1039DC007B681B6822F480621A6000237B627B6820
:1039EC001B685B697B627B681B689B697B627B6A7B
:1039FC00F2E000233B627B681B685B693B627B687F
:103A0C001B689B693B623B6A7B681B681A687B6816
:103A1C001B6842F400721A60DEE0BB6B082B2ED0E0
:103A2C00BB6B202B2BD07B6B122B02D1BB6B012BD6
:103A3C0025D1BB6B042B0ED0BB6B022B0BD0BB6BFD
:103A4C00102B08D07B681B681A687B681B6822F4F3
:103A5C0080621A6007E07B681B681A687B681B68C9
:103A6C0042F480621A600023FB617B681B685B690F
:103A7C00FB617B681B689B69FB61FB69ACE07B6845
:103A8C001B681A687B681B6822F480621A6000232A
:103A9C00BB617B681B685B69BB617B681B689B694E
:103AAC00BB61BB697B681B681A687B681B6842F446
:103ABC0000721A6090E07B685B8D9BB2022B58D130
:103ACC00BB6B042B21D0BB6B022B1ED0BB6B102B02
:103ADC001BD07B681B681A687B681B6842F4006209
:103AEC001A6000237B617B681B685B697B617B6868
:103AFC001B689B697B617B697B681B681A687B68A8
:103B0C001B6822F480621A6012E07B681B681A68DA
:103B1C007B681B6842F480621A6000233B617B68FF
:103B2C001B685B693B617B681B689B693B613B69FC
:103B3C007B681B685B6803F40063B3F5006F4BD1C3
:103B4C00BB6B13F5803F0BD0BB6B012B08D0BB6B51
:103B5C00082B05D0BB6B102B02D0BB6B202B3BD1A1
:103B6C007B681B685A687B681B6842F480525A60F9
:103B7C0032E07B681B681A687B681B6842F48062C1
:103B8C001A607B681B685B6803F40063B3F5006F15
:103B9C0017D1BB6B13F5803F0BD0BB6B012B08D03F
:103BAC00BB6B082B05D0BB6B102B02D0BB6B202B37
:103BBC0007D17B681B685A687B681B6842F480528B
:103BCC005A600023FB607B681B685B69FB607B6849
:103BDC001B689B69FB60FB687B6800221A650BE025
:103BEC000023BB607B681B685B69BB607B681B68E0
:103BFC009B69BB60BB68FFE700BF4437BD4680BC18
:103C0C00704780B584B000AF78607B6893F83D3026
:103C1C00FB737B685B8D9BB2002B2BD07B685B6A44
:103C2C001A787B681B681A617B685B6A5A1C7B6814
:103C3C005A627B685B8D9BB2013B9AB27B685A855A
:103C4C007B685B8D9BB2002B14D1FB7B292B11D194
:103C5C007B681B685A687B681B6822F480625A6018
:103C6C007B6821221A637B68282283F83D207868C0
:103C7C00FFF7CFF900BF1037BD4680BD80B483B0CD
:103C8C0000AF78607B685B8D9BB2002B11D07B689A
:103C9C005B6A1A787B681B681A617B685B6A5A1CC2
:103CAC007B685A627B685B8D9BB2013B9AB27B68E6
:103CBC005A8500BF0C37BD4680BC704780B584B0B8
:103CCC0000AF78607B6893F83D30FB737B685B8D4D
:103CDC009BB2002B2CD07B681B681A697B685B6AD3
:103CEC00D2B21A707B685B6A5A1C7B685A627B681A
:103CFC005B8D9BB2013B9AB27B685A857B685B8D6E
:103D0C009BB2002B14D1FB7B2A2B11D17B681B6837
:103D1C005A687B681B6822F480625A607B68222296
:103D2C001A637B68282283F83D207868FFF77AF9BC
:103D3C0000BF1037BD4680BD80B483B000AF786043
:103D4C007B685B8D9BB2002B12D07B681B681A6959
:103D5C007B685B6AD2B21A707B685B6A5A1C7B68A0
:103D6C005A627B685B8D9BB2013B9AB27B685A8529
:103D7C0000BF0C37BD4680BC704780B584B000AF27
:103D8C00786039600023FB737B6893F83D30DBB2BD
:103D9C0003F02803282B27D17B681B685A687B68A3
:103DAC001B6822F480625A603B689B0803F0010395
:103DBC00002B01D10123FB733B68DB0903F00103EA
:103DCC00002B03D17B68DB68BB8102E07B689B69BD
:103DDC00BB817B68002283F83C20BA89FB7B1946A7
:103DEC007868FFF728F90EE00023BB607B681B683E
:103DFC005B69BB607B681B689B69BB60BB687B684D
:103E0C00002283F83C2000BF1037BD4680BD000067
:103E1C0080B584B000AF78607B6893F83D30FB735D
:103E2C007B681B685A687B681B6822F4E0625A60E6
:103E3C000023BB607B681B685B69BB607B681B688D
:103E4C001A687B681B6842F001021A60BB687B68C9
:103E5C001B681A687B681B6822F480621A607B6896
:103E6C001B685B6803F40063B3F5006F72D1FB7BD6
:103E7C00222B02D0FB7B2A2B35D17B689B6B1B68DA
:103E8C005B689AB27B685A857B685B8D9BB2002B12
:103E9C0005D07B681B6C43F004027B681A647B685A
:103EAC001B685A687B681B6822F400625A607B6846
:103EBC009B6B1846FEF7FCFB0346012B49D07B6835
:103ECC009B6B694A5A637B689B6B1846FEF772FAC8
:103EDC000346002B3DD07B689B6B5B6B7A68926BC7
:103EEC001046984735E07B685B6B1B685B689AB241
:103EFC007B685A857B685B8D9BB2002B05D07B68F9
:103F0C001B6C43F004027B681A647B681B685A685C
:103F1C007B681B6822F400625A607B685B6B1846F6
:103F2C00FEF7C6FB0346012B14D07B685B6B4E4A35
:103F3C005A637B685B6B1846FEF73CFA0346002B12
:103F4C0008D07B685B6B5B6B7A68526B104698474A
:103F5C0000E000BF7B685B8D9BB2002B3ED07B6882
:103F6C001B685B6903F00403042B12D17B681B688C
:103F7C001A697B685B6AD2B21A707B685B6A5A1CDE
:103F8C007B685A627B685B8D9BB2013B9AB27B6803
:103F9C005A857B681B685B6903F04003402B12D188
:103FAC007B681B681A697B685B6AD2B21A707B6883
:103FBC005B6A5A1C7B685A627B685B8D9BB2013BC7
:103FCC009AB27B685A857B685B8D9BB2002B05D0BF
:103FDC007B681B6C43F004027B681A647B681B6C67
:103FEC00002B03D0786800F043F839E0FB7B2A2BD8
:103FFC0009D17B6800221A637B68282283F83D2054
:10400C007868FFF70FF87B6893F83D30DBB2282B0C
:10401C0011D17B68154ADA627B6800221A637B68CF
:10402C00202283F83D207B68002283F83E207868AC
:10403C00FFF70EF814E07B681B6B222B02D0FB7B86
:10404C00222B0DD17B6800221A637B68202283F817
:10405C003D207B68002283F83E207868FEF7E2FF63
:10406C0000BF1037BD4680BDE14200080000FFFFD5
:10407C0080B584B000AF78607B6893F83D30FB73FB
:10408C007B6893F83E30BB73BB7B102B02D0BB7BA1
:10409C00402B0AD1FB7B222B07D17B681B681A684B
:1040AC007B681B6822F400621A60FB7B03F0280318
:1040BC00282B07D17B6800221A637B68282283F89F
:1040CC003D2015E07B681B685B6803F40063B3F567
:1040DC00006F0AD0FB7B602B07D07B68202283F813
:1040EC003D207B68002283F83E207B6800221A6307
:1040FC007B681B685B6803F40063B3F5006F62D1E7
:10410C007B681B685A687B681B6822F400625A60E3
:10411C007B685B6B93F82130DBB2012B20D07B6882
:10412C005B6B6A4A5A637B685B6B1846FEF742F915
:10413C000346002B00F089807B681B681A687B683B
:10414C001B6822F001021A607B68202283F83D2054
:10415C007B685B6B5B6B7A68526B1046984774E0BC
:10416C007B689B6B594A5A637B689B6B1846FEF7BE
:10417C0021F90346002B68D07B681B685B6903F050
:10418C004003402B0BD17B681B681A697B685B6A08
:10419C00D2B21A707B685B6A5A1C7B685A627B6865
:1041AC001B681A687B681B6822F001021A607B6826
:1041BC00202283F83D207B689B6B5B6B7A68926B4B
:1041CC001046984741E07B6893F83D30DBB2602B9A
:1041DC0025D17B68202283F83D207B6800221A645D
:1041EC007B681B685B6903F04003402B0BD17B6839
:1041FC001B681A697B685B6AD2B21A707B685B6A4F
:10420C005A1C7B685A627B681B681A687B681B683F
:10421C0022F001021A607868FEF73EFF15E07B6819
:10422C001B685B6903F04003402B0BD17B681B6858
:10423C001A697B685B6AD2B21A707B685B6A5A1C1B
:10424C007B685A627868FEF71EFF7B681B6CBB604C
:10425C00BB6803F00103002B0ED1BB6803F0020313
:10426C00002B09D1BB6803F00403002B04D1BB68FD
:10427C0003F00803002B07D07B681B685A687B6827
:10428C001B6822F4E0625A607B6893F83D30FB7344
:10429C007B681B6C03F00403042B13D1FB7B282BD2
:1042AC0010D17B680A4ADA627B6800221A637B6849
:1042BC00202283F83D207B68002283F83E2078681A
:1042CC00FEF7C6FE00BF1037BD4680BDE1420008B8
:1042DC000000FFFF80B586B000AF78600023FB6064
:1042EC007B685B6A7B617B6993F83D30FB744B4B5D
:1042FC001B68DB084A4AA2FB03231A0A13469B00DD
:10430C001344DA00D31AFB60FB68002B06D17B69DF
:10431C001B6C43F020027B691A640AE0FB68013BCA
:10432C00FB607B691B681B6803F40073B3F5007FAB
:10433C00EAD07B695B6B002B03D07B695B6B002243
:10434C009A627B699B6B002B03D07B699B6B002271
:10435C009A627B691B681A687B691B6822F480620D
:10436C001A607B6900225A857B695B6B002B03D03A
:10437C007B695B6B00225A637B699B6B002B03D0C0
:10438C007B699B6B00225A637B691B681A687B698B
:10439C001B6822F001021A607B6993F83D30DBB296
:1043AC00602B0ED17B69202283F83D207B69002293
:1043BC0083F83E207B6900221A647869FEF76CFE54
:1043CC0027E0FB7C03F02803282B17D17B691B68A3
:1043DC001A687B691B6842F001021A607B691B68D2
:1043EC001A687B691B6842F480621A607B69002240
:1043FC001A637B69282283F83D2007E07B69202221
:10440C0083F83D207B69002283F83E207869FEF713
:10441C003AFE00BF1837BD4680BD00BF0400002027
:10442C0089B5F81480B485B000AF78600023FB60C8
:10443C00134B1B68DB08134AA2FB03231A0A13460F
:10444C009B001344FB60FB68013BFB60FB68002B8B
:10445C0007D17B681B6C43F020027B681A64012334
:10446C0008E07B681B681B6803F40073B3F5007FDE
:10447C00E9D0002318461437BD4680BC704700BFF6
:10448C000400002089B5F81480B483B000AF7860C4
:10449C007B68DB6AB3F52A0F03D17B680122DA62F1
:1044AC0007E07B68DB6AB3F12A4F02D17B680822F4
:1044BC00DA6200BF0C37BD4680BC704780B586B051
:1044CC0000AF78607B68002B01D1012372E27B681E
:1044DC001B6803F00103002B00F08780924B5B6894
:1044EC0003F00C03042B0CD08F4B5B6803F00C0314
:1044FC00082B12D18C4B5B6803F48033B3F5803FEF
:10450C000BD1894B1B6803F40033002B6CD07B68F8
:10451C005B68002B68D101234CE27B685B68B3F5C8
:10452C00803F06D1804B1B687F4A43F48033136075
:10453C002EE07B685B68002B0CD17B4B1B687A4AA6
:10454C0023F480331360784B1B68774A23F4802361
:10455C0013601DE07B685B68B3F5A02F0CD1724B28
:10456C001B68714A43F4802313606F4B1B686E4ABF
:10457C0043F4803313600BE06B4B1B686A4A23F4E3
:10458C0080331360684B1B68674A23F480231360E5
:10459C007B685B68002B13D0FDF7FEFC386108E0EC
:1045AC00FDF7FAFC02463B69D31A642B01D90323AD
:1045BC0000E25D4B1B6803F40033002BF0D014E0D9
:1045CC00FDF7EAFC386108E0FDF7E6FC02463B69C2
:1045DC00D31A642B01D90323ECE1534B1B6803F46E
:1045EC000033002BF0D100E000BF7B681B6803F0A8
:1045FC000203002B63D04C4B5B6803F00C03002BC5
:10460C000BD0494B5B6803F00C03082B1CD1464BB9
:10461C005B6803F48033002B16D1434B1B6803F00B
:10462C000203002B05D07B681B69012B01D00123F1
:10463C00C0E13D4B1B6823F0F8027B685B69DB0033
:10464C00394913430B603AE07B681B69002B20D07F
:10465C00364B01221A60FDF79FFC386108E0FDF72C
:10466C009BFC02463B69D31A022B01D90323A1E11F
:10467C002D4B1B6803F00203002BF0D02A4B1B6858
:10468C0023F0F8027B685B69DB00274913430B605E
:10469C0015E0264B00221A60FDF77EFC386108E01D
:1046AC00FDF77AFC02463B69D31A022B01D903238E
:1046BC0080E11D4B1B6803F00203002BF0D17B68DB
:1046CC001B6803F00803002B3AD07B689B69002B16
:1046DC0019D0174B01221A60FDF75EFC386108E017
:1046EC00FDF75AFC02463B69D31A022B01D903236E
:1046FC0060E10D4B5B6A03F00203002BF0D001204C
:10470C0000F0CEFA1CE00A4B00221A60FDF744FCC4
:10471C0038610FE0FDF740FC02463B69D31A022BCF
:10472C0008D9032346E100BF0010024000004242BA
:10473C0080044242924B5B6A03F00203002BE9D1E6
:10474C007B681B6803F00403002B00F0A680002399
:10475C00FB758B4BDB6903F08053002B0DD1884B21
:10476C00DB69874A43F08053D361854BDB6903F0E7
:10477C008053BB60BB680123FB75824B1B6803F441
:10478C008073002B18D17F4B1B687E4A43F48073D7
:10479C001360FDF701FC386108E0FDF7FDFB0246F4
:1047AC003B69D31A642B01D9032303E1754B1B68B6
:1047BC0003F48073002BF0D07B68DB68012B06D1EF
:1047CC006F4B1B6A6E4A43F0010313622DE07B684A
:1047DC00DB68002B0CD16A4B1B6A694A23F001037E
:1047EC001362674B1B6A664A23F0040313621CE0D6
:1047FC007B68DB68052B0CD1614B1B6A604A43F06C
:10480C00040313625E4B1B6A5D4A43F0010313629F
:10481C000BE05B4B1B6A5A4A23F001031362584BA3
:10482C001B6A574A23F0040313627B68DB68002B76
:10483C0015D0FDF7B1FB38610AE0FDF7ADFB024680
:10484C003B69D31A41F28832934201D90323B1E078
:10485C004B4B1B6A03F00203002BEED014E0FDF768
:10486C009BFB38610AE0FDF797FB02463B69D31AC4
:10487C0041F28832934201D903239BE0404B1B6ADF
:10488C0003F00203002BEED1FB7D012B05D13C4B39
:10489C00DB693B4A23F08053D3617B68DB69002BD7
:1048AC0000F08780364B5B6803F00C03082B61D05B
:1048BC007B68DB69022B46D1334B00221A60FDF773
:1048CC006BFB386108E0FDF767FB02463B69D31AC6
:1048DC00022B01D903236DE0294B1B6803F00073F5
:1048EC00002BF0D17B681B6AB3F5803F08D1244BB9
:1048FC005B6823F400327B689B68214913434B604F
:10490C001F4B5B6823F474127B68196A7B685B6AC3
:10491C000B431B4913434B601B4B01221A60FDF7E1
:10492C003BFB386108E0FDF737FB02463B69D31AC5
:10493C00022B01D903233DE0114B1B6803F00073DC
:10494C00002BF0D035E0104B00221A60FDF724FB51
:10495C00386108E0FDF720FB02463B69D31A022BB5
:10496C0001D9032326E0064B1B6803F00073002BD0
:10497C00F0D11EE07B68DB69012B07D1012319E024
:10498C000010024000700040600042420B4B5B681C
:10499C00FB60FB6803F480327B681B6A9A4206D189
:1049AC00FB6803F470127B685B6A9A4201D00123A6
:1049BC0000E0002318461837BD4680BD00100240A9
:1049CC0080B584B000AF786039607B68002B01D172
:1049DC000123D0E06A4B1B6803F007033A689A4244
:1049EC0010D9674B1B6823F0070265493B681343DA
:1049FC000B60634B1B6803F007033A689A4201D0C3
:104A0C000123B8E07B681B6803F00203002B20D065
:104A1C007B681B6803F00403002B05D0594B5B68C3
:104A2C00584A43F4E06353607B681B6803F0080347
:104A3C00002B05D0534B5B68524A43F460535360D0
:104A4C00504B5B6823F0F0027B689B684D49134325
:104A5C004B607B681B6803F00103002B40D07B6824
:104A6C005B68012B07D1474B1B6803F40033002B09
:104A7C0015D101237FE07B685B68022B07D1414B8A
:104A8C001B6803F00073002B09D1012373E03D4B2D
:104A9C001B6803F00203002B01D101236BE0394B9F
:104AAC005B6823F003027B685B68364913434B60F9
:104ABC00FDF772FAF8600AE0FDF76EFA0246FB6841
:104ACC00D31A41F28832934201D9032353E02D4B80
:104ADC005B6803F00C027B685B689B009A42EBD12D
:104AEC00274B1B6803F007033A689A4210D2244BF9
:104AFC001B6823F0070222493B6813430B60204BD1
:104B0C001B6803F007033A689A4201D0012332E094
:104B1C007B681B6803F00403002B08D0194B5B68FF
:104B2C0023F4E0627B68DB68164913434B607B68B7
:104B3C001B6803F00803002B09D0124B5B6823F4AD
:104B4C0060527B681B69DB000E4913434B6000F01D
:104B5C0021F802460B4B5B681B0903F00F030A4953
:104B6C00CB5C22FA03F3094A1360094B1B68184605
:104B7C00FDF7D0F9002318461037BD4680BD00BFA5
:104B8C0000200240001002400879000804000020B8
:104B9C000800002080B487B000AF0023FB60002326
:104BAC00BB6000237B6100237B6000233B611E4BB9
:104BBC005B68FB60FB6803F00C03042B02D0082B32
:104BCC0003D027E0194B3B6127E0FB689B0C03F0FB
:104BDC000F03174AD35C7B60FB6803F48033002B14
:104BEC0010D0114B5B685B0C03F00103114AD35CD2
:104BFC00BB607B680D4A03FB02F2BB68B2FBF3F3AC
:104C0C007B6104E07B680C4A02FB03F37B617B69EC
:104C1C003B6102E0054B3B6100BF3B6918461C370A
:104C2C00BD4680BC704700BF0010024000127A00E5
:104C3C00207900083079000800093D0080B400AFED
:104C4C00024B1B681846BD4680BC70470400002010
:104C5C0080B500AFFFF7F2FF0246054B5B681B0AFD
:104C6C0003F007030349CB5C22FA03F3184680BD1B
:104C7C00001002401879000880B500AFFFF7DEFF86
:104C8C000246054B5B68DB0A03F007030349CB5C68
:104C9C0022FA03F3184680BD001002401879000870
:104CAC0080B485B000AF78600A4B1B680A4AA2FB3F
:104CBC0003235B0A7A6802FB03F3FB6000BFFB680B
:104CCC005A1EFA60002BF9D100BF00BF1437BD4645
:104CDC0080BC704704000020D34D621080B582B0B8
:104CEC0000AF78607B68002B01D1012341E07B6829
:104CFC0093F83D30DBB2002B06D17B68002283F8A1
:104D0C003C207868FCF7AAFE7B68022283F83D20E1
:104D1C007B681A687B6804331946104600F0FCFA6D
:104D2C007B68012283F846207B68012283F83E20B1
:104D3C007B68012283F83F207B68012283F84020A6
:104D4C007B68012283F841207B68012283F8422092
:104D5C007B68012283F843207B68012283F844207E
:104D6C007B68012283F845207B68012283F83D2073
:104D7C00002318460837BD4680BD000080B485B0BE
:104D8C0000AF78607B6893F83D30DBB2012B01D02B
:104D9C0001233AE07B68022283F83D207B681B6884
:104DAC00DA687B681B6842F00102DA607B681B687A
:104DBC00184A93420ED07B681B68B3F1804F09D020
:104DCC007B681B68144A934204D07B681B68134AA7
:104DDC00934211D17B681B689B6803F00703FB604F
:104DEC00FB68062B10D07B681B681A687B681B68F5
:104DFC0042F001021A6007E07B681B681A687B6846
:104E0C001B6842F001021A60002318461437BD4695
:104E1C0080BC7047002C014000040040000800409A
:104E2C0080B582B000AF78607B68002B01D1012384
:104E3C0041E07B6893F83D30DBB2002B06D17B68F8
:104E4C00002283F83C207868FCF726FE7B6802225F
:104E5C0083F83D207B681A687B680433194610463A
:104E6C0000F05AFA7B68012283F846207B68012205
:104E7C0083F83E207B68012283F83F207B68012267
:104E8C0083F840207B68012283F841207B68012253
:104E9C0083F842207B68012283F843207B6801223F
:104EAC0083F844207B68012283F845207B6801222B
:104EBC0083F83D20002318460837BD4680BD00000E
:104ECC0080B584B000AF786039603B68002B09D1A5
:104EDC007B6893F83E30DBB2012B14BF0123002317
:104EEC00DBB222E03B68042B09D17B6893F83F309E
:104EFC00DBB2012B14BF01230023DBB215E03B68AE
:104F0C00082B09D17B6893F84030DBB2012B14BF1E
:104F1C0001230023DBB208E07B6893F84130DBB25D
:104F2C00012B14BF01230023DBB2002B01D0012382
:104F3C005EE03B68002B04D17B68022283F83E20A4
:104F4C0013E03B68042B04D17B68022283F83F20DA
:104F5C000BE03B68082B04D17B68022283F84020CD
:104F6C0003E07B68022283F841207B681B680122E6
:104F7C003968184600F05CFC7B681B681E4A93423B
:104F8C0007D17B681B685A6C7B681B6842F4004233
:104F9C005A647B681B68184A93420ED07B681B6866
:104FAC00B3F1804F09D07B681B68144A934204D03C
:104FBC007B681B68124A934211D17B681B689B6803
:104FCC0003F00703FB60FB68062B10D07B681B68A3
:104FDC001A687B681B6842F001021A6007E07B6864
:104FEC001B681A687B681B6842F001021A60002378
:104FFC0018461037BD4680BD002C0140000400400F
:10500C000008004080B586B000AFF860B9607A60E7
:10501C000023FB75FB6893F83C30012B01D1022374
:10502C00AEE0FB68012283F83C207B680C2B00F27D
:10503C009F8001A252F823F0795000087D5100089E
:10504C007D5100087D510008B95000087D510008C1
:10505C007D5100087D510008FB5000087D5100086F
:10506C007D5100087D5100083B510008FB681B680E
:10507C00B968184600F0BEF9FB681B689A69FB68B2
:10508C001B6842F008029A61FB681B689A69FB680E
:10509C001B6822F004029A61FB681B689969BB6863
:1050AC001A69FB681B680A439A6164E0FB681B6819
:1050BC00B968184600F004FAFB681B689A69FB682B
:1050CC001B6842F400629A61FB681B689A69FB6872
:1050DC001B6822F480629A61FB681B689969BB6843
:1050EC001B691A02FB681B680A439A6143E0FB6860
:1050FC001B68B968184600F04DFAFB681B68DA6942
:10510C00FB681B6842F00802DA61FB681B68DA690D
:10511C00FB681B6822F00402DA61FB681B68D96922
:10512C00BB681A69FB681B680A43DA6123E0FB68F9
:10513C001B68B968184600F097FAFB681B68DA69B7
:10514C00FB681B6842F40062DA61FB681B68DA6971
:10515C00FB681B6822F48062DA61FB681B68D96902
:10516C00BB681B691A02FB681B680A43DA6102E020
:10517C000123FB7500BFFB68002283F83C20FB7DFC
:10518C0018461837BD4680BD80B584B000AF786036
:10519C0039600023FB737B6893F83C30012B01D101
:1051AC000223B4E07B68012283F83C207B68022256
:1051BC0083F83D207B681B689B68BB60BB6823F051
:1051CC007703BB60BB6823F47F43BB607B681B68C1
:1051DC00BA689A603B681B68B3F5005F3ED0B3F5C4
:1051EC00005F00F28780B3F5805F00F08680B3F536
:1051FC00805F7FD8702B1AD0702B7BD8602B50D04F
:10520C00602B77D8502B3CD0502B73D8402B58D0D8
:10521C00402B6FD8302B64D0302B6BD8202B60D028
:10522C00202B67D8002B5CD0102B5AD062E07B6807
:10523C0018683B6899683B685A683B68DB6800F003
:10524C00D8FA7B681B689B68BB60BB6843F077032C
:10525C00BB607B681B68BA689A604FE07B68186813
:10526C003B6899683B685A683B68DB6800F0C1FA98
:10527C007B681B689A687B681B6842F480429A6062
:10528C003CE07B6818683B6859683B68DB681A46E9
:10529C0000F038FA7B681B685021184600F08FFA32
:1052AC002CE07B6818683B6859683B68DB681A46D9
:1052BC0000F056FA7B681B686021184600F07FFAF4
:1052CC001CE07B6818683B6859683B68DB681A46C9
:1052DC0000F018FA7B681B684021184600F06FFA42
:1052EC000CE07B681A683B681B681946104600F096
:1052FC0066FA03E00123FB7300E000BF7B68012228
:10530C0083F83D207B68002283F83C20FB7B184609
:10531C001037BD4680BD000080B485B000AF78600A
:10532C0039607B681B68FB607B682F4A93420BD00B
:10533C007B68B3F1804F07D07B682C4A934203D033
:10534C007B682B4A934208D1FB6823F07003FB6007
:10535C003B685B68FA681343FB607B68224A9342A4
:10536C000BD07B68B3F1804F07D07B681F4A934208
:10537C0003D07B681E4A934208D1FB6823F4407328
:10538C00FB603B68DB68FA681343FB60FB6823F047
:10539C0080023B685B691343FB607B68FA681A60A8
:1053AC003B689A687B68DA623B681A687B689A6229
:1053BC007B680D4A934203D13B681A697B681A6378
:1053CC007B6801225A617B681B6903F00103002B87
:1053DC0005D07B681B6923F001027B681A6100BF52
:1053EC001437BD4680BC7047002C014000040040BF
:1053FC000008004080B487B000AF786039607B68EB
:10540C001B6A7B617B681B6A23F001027B681A6252
:10541C007B685B683B617B689B69FB60FB6823F086
:10542C007003FB60FB6823F00303FB603B681B68A5
:10543C00FA681343FB607B6923F002037B613B68D2
:10544C009B687A6913437B617B681C4A93420CD13D
:10545C007B6923F008037B613B68DB687A69134343
:10546C007B617B6923F004037B617B68134A934265
:10547C0011D13B6923F480733B613B6923F40073C6
:10548C003B613B685B693A6913433B613B689B69D1
:10549C003A6913433B617B683A695A607B68FA68E6
:1054AC009A613B685A687B685A637B687A691A62AE
:1054BC0000BF1C37BD4680BC704700BF002C0140AC
:1054CC0080B487B000AF786039607B681B6A7B6101
:1054DC007B681B6A23F010027B681A627B685B682E
:1054EC003B617B689B69FB60FB6823F4E043FB60DA
:1054FC00FB6823F44073FB603B681B681B02FA6873
:10550C001343FB607B6923F020037B613B689B6842
:10551C001B017A6913437B617B681D4A93420DD151
:10552C007B6923F080037B613B68DB681B017A6934
:10553C0013437B617B6923F040037B617B68144AD6
:10554C00934213D13B6923F480633B613B6923F4A1
:10555C0000633B613B685B699B003A6913433B61A9
:10556C003B689B699B003A6913433B617B683A69D2
:10557C005A607B68FA689A613B685A687B689A63E0
:10558C007B687A691A6200BF1C37BD4680BC7047C5
:10559C00002C014080B487B000AF786039607B6824
:1055AC001B6A7B617B681B6A23F480727B681A62BE
:1055BC007B685B683B617B68DB69FB60FB6823F0A5
:1055CC007003FB60FB6823F00303FB603B681B6804
:1055DC00FA681343FB607B6923F400737B613B68BF
:1055EC009B681B027A6913437B617B681D4A93425B
:1055FC000DD17B6923F400637B613B68DB681B0284
:10560C007A6913437B617B6923F480637B617B68DC
:10561C00144A934213D13B6923F480533B613B6999
:10562C0023F400533B613B685B691B013A691343EC
:10563C003B613B689B691B013A6913433B617B6887
:10564C003A695A607B68FA68DA613B685A687B6829
:10565C00DA637B687A691A6200BF1C37BD4680BC6E
:10566C00704700BF002C014080B487B000AF786059
:10567C0039607B681B6A3B617B681B6A23F4805230
:10568C007B681A627B685B687B617B68DB69FB60AB
:10569C00FB6823F4E043FB60FB6823F44073FB607E
:1056AC003B681B681B02FA681343FB603B6923F4DD
:1056BC0000533B613B689B681B033A6913433B6196
:1056CC007B680F4A934209D17B6923F480437B6149
:1056DC003B685B699B017A6913437B617B687A69E0
:1056EC005A607B68FA68DA613B685A687B681A64AE
:1056FC007B683A691A6200BF1C37BD4680BC704794
:10570C00002C014080B487B000AFF860B9607A60BB
:10571C00FB681B6A7B61FB681B6A23F00102FB6858
:10572C001A62FB689B693B613B6923F0F0033B61A8
:10573C007B681B013A6913433B617B6923F00A03C5
:10574C007B617A69BB6813437B61FB683A699A6138
:10575C00FB687A691A6200BF1C37BD4680BC704773
:10576C0080B487B000AFF860B9607A60FB681B6AE0
:10577C007B61FB681B6A23F01002FB681A62FB68F2
:10578C009B693B613B6923F470433B617B681B0362
:10579C003A6913433B617B6923F0A0037B61BB68CF
:1057AC001B017A6913437B61FB683A699A61FB6858
:1057BC007A691A6200BF1C37BD4680BC704780B442
:1057CC0085B000AF786039607B689B68FB60FB68D4
:1057DC0023F07003FB603A68FB68134343F0070344
:1057EC00FB607B68FA689A6000BF1437BD4680BCCA
:1057FC00704780B487B000AFF860B9607A603B60E6
:10580C00FB689B687B617B6923F47F437B613B680E
:10581C001A027B681A43BB6813437A6913437B6192
:10582C00FB687A699A6000BF1C37BD4680BC704724
:10583C0080B487B000AFF860B9607A60BB6803F0E1
:10584C001F03012202FA03F37B61FB681A6A7B696E
:10585C00DB431A40FB681A62FB681A6ABB6803F0E8
:10586C001F03796801FA03F31A43FB681A6200BF3D
:10587C001C37BD4680BC704780B485B000AF7860E3
:10588C0039607B6893F83C30012B01D1022346E050
:10589C007B68012283F83C207B68022283F83D2040
:1058AC007B681B685B68FB607B681B689B68BB60E4
:1058BC00FB6823F07003FB603B681B68FA681343BA
:1058CC00FB607B681B68FA685A607B681B68164A29
:1058DC0093420ED07B681B68B3F1804F09D07B6874
:1058EC001B68124A934204D07B681B68104A93428F
:1058FC000CD1BB6823F08003BB603B685B68BA6863
:10590C001343BB607B681B68BA689A607B68012292
:10591C0083F83D207B68002283F83C200023184646
:10592C001437BD4680BC7047002C01400004004079
:10593C000008004080B485B000AF78603960002367
:10594C00FB607B6893F83C30012B01D102233DE0D6
:10595C007B68012283F83C20FB6823F0FF023B6844
:10596C00DB681343FB60FB6823F440723B689B6865
:10597C001343FB60FB6823F480623B685B68134352
:10598C00FB60FB6823F400623B681B681343FB60FD
:10599C00FB6823F480523B681B691343FB60FB6874
:1059AC0023F400523B685B691343FB60FB6823F4F0
:1059BC0080423B68DB691343FB607B681B68FA68B9
:1059CC005A647B68002283F83C2000231846143765
:1059DC00BD4680BC704780B582B000AF78607B68F4
:1059EC00002B01D1012342E07B6893F84130DBB2FC
:1059FC00002B06D17B68002283F840207868FCF7E6
:105A0C00B9F87B68242283F841207B681B68DA682C
:105A1C007B681B6822F40052DA60786800F016FF8D
:105A2C007B681B681A697B681B6822F490421A61B8
:105A3C007B681B685A697B681B6822F02A025A61D2
:105A4C007B681B68DA687B681B6842F40052DA607A
:105A5C007B6800225A647B68202283F841207B6893
:105A6C00202283F842207B6800225A6300231846C8
:105A7C000837BD4680BD80B485B000AFF860B96012
:105A8C001346FB80FB6893F84130DBB2202B21D10D
:105A9C00BB68002B02D0FB88002B01D101231AE03C
:105AAC00FB68BA681A62FB68FA889A84FB68FA8801
:105ABC00DA84FB6800225A64FB68212283F84120B7
:105ACC00FB681B68DA68FB681B6842F08002DA60CE
